{
  "contractName": "SLPRcoinCrowdSaleDeployer",
  "abi": [
    {
      "inputs": [
        {
          "internalType": "string",
          "name": "name",
          "type": "string"
        },
        {
          "internalType": "string",
          "name": "symbol",
          "type": "string"
        },
        {
          "internalType": "uint256",
          "name": "rate",
          "type": "uint256"
        },
        {
          "internalType": "address payable",
          "name": "wallet",
          "type": "address"
        },
        {
          "internalType": "uint256",
          "name": "cap",
          "type": "uint256"
        },
        {
          "internalType": "uint256",
          "name": "goal",
          "type": "uint256"
        },
        {
          "internalType": "address",
          "name": "_foundersFund",
          "type": "address"
        },
        {
          "internalType": "address",
          "name": "_foundationFund",
          "type": "address"
        },
        {
          "internalType": "address",
          "name": "_partnersFund",
          "type": "address"
        }
      ],
      "payable": false,
      "stateMutability": "nonpayable",
      "type": "constructor"
    },
    {
      "constant": true,
      "inputs": [],
      "name": "token_address",
      "outputs": [
        {
          "internalType": "address",
          "name": "",
          "type": "address"
        }
      ],
      "payable": false,
      "stateMutability": "view",
      "type": "function"
    },
    {
      "constant": true,
      "inputs": [],
      "name": "token_sale_address",
      "outputs": [
        {
          "internalType": "address",
          "name": "",
          "type": "address"
        }
      ],
      "payable": false,
      "stateMutability": "view",
      "type": "function"
    }
  ],
  "bytecode": "0x6080604052426002553480156200001557600080fd5b50604051620082133803806200821383398181016040526101208110156200003c57600080fd5b81019080805160405193929190846401000000008211156200005d57600080fd5b838201915060208201858111156200007457600080fd5b82518660018202830111640100000000821117156200009257600080fd5b8083526020830192505050908051906020019080838360005b83811015620000c8578082015181840152602081019050620000ab565b50505050905090810190601f168015620000f65780820380516001836020036101000a031916815260200191505b50604052602001805160405193929190846401000000008211156200011a57600080fd5b838201915060208201858111156200013157600080fd5b82518660018202830111640100000000821117156200014f57600080fd5b8083526020830192505050908051906020019080838360005b838110156200018557808201518184015260208101905062000168565b50505050905090810190601f168015620001b35780820380516001836020036101000a031916815260200191505b5060405260200180519060200190929190805190602001909291908051906020019092919080519060200190929190805190602001909291908051906020019092919080519060200190929190505050600089896000604051620002179062000893565b808060200180602001848152602001838103835286818151815260200191508051906020019080838360005b838110156200026057808201518184015260208101905062000243565b50505050905090810190601f1680156200028e5780820380516001836020036101000a031916815260200191505b50838103825285818151815260200191508051906020019080838360005b83811015620002c9578082015181840152602081019050620002ac565b50505050905090810190601f168015620002f75780820380516001836020036101000a031916815260200191505b5095505050505050604051809103906000f0801580156200031c573d6000803e3d6000fd5b50905080600160006101000a81548173ffffffffffffffffffffffffffffffffffffffff021916908373ffffffffffffffffffffffffffffffffffffffff16021790555060008888838960025462015180600254018b8b8b8b6303bfc400600254016040516200038c90620008a1565b808c81526020018b73ffffffffffffffffffffffffffffffffffffffff1673ffffffffffffffffffffffffffffffffffffffff1681526020018a73ffffffffffffffffffffffffffffffffffffffff1673ffffffffffffffffffffffffffffffffffffffff1681526020018981526020018881526020018781526020018681526020018573ffffffffffffffffffffffffffffffffffffffff1673ffffffffffffffffffffffffffffffffffffffff1681526020018473ffffffffffffffffffffffffffffffffffffffff1673ffffffffffffffffffffffffffffffffffffffff1681526020018373ffffffffffffffffffffffffffffffffffffffff1673ffffffffffffffffffffffffffffffffffffffff1681526020018281526020019b505050505050505050505050604051809103906000f080158015620004d5573d6000803e3d6000fd5b509050806000806101000a81548173ffffffffffffffffffffffffffffffffffffffff021916908373ffffffffffffffffffffffffffffffffffffffff1602179055508173ffffffffffffffffffffffffffffffffffffffff1663983b2d566000809054906101000a900473ffffffffffffffffffffffffffffffffffffffff166040518263ffffffff1660e01b8152600401808273ffffffffffffffffffffffffffffffffffffffff1673ffffffffffffffffffffffffffffffffffffffff168152602001915050600060405180830381600087803b158015620005b957600080fd5b505af1158015620005ce573d6000803e3d6000fd5b505050508173ffffffffffffffffffffffffffffffffffffffff1663983b2d56896040518263ffffffff1660e01b8152600401808273ffffffffffffffffffffffffffffffffffffffff1673ffffffffffffffffffffffffffffffffffffffff168152602001915050600060405180830381600087803b1580156200065257600080fd5b505af115801562000667573d6000803e3d6000fd5b505050508173ffffffffffffffffffffffffffffffffffffffff1663986502756040518163ffffffff1660e01b8152600401600060405180830381600087803b158015620006b457600080fd5b505af1158015620006c9573d6000803e3d6000fd5b505050508073ffffffffffffffffffffffffffffffffffffffff16637362d9c86000809054906101000a900473ffffffffffffffffffffffffffffffffffffffff166040518263ffffffff1660e01b8152600401808273ffffffffffffffffffffffffffffffffffffffff1673ffffffffffffffffffffffffffffffffffffffff168152602001915050600060405180830381600087803b1580156200076e57600080fd5b505af115801562000783573d6000803e3d6000fd5b505050508073ffffffffffffffffffffffffffffffffffffffff16637362d9c8896040518263ffffffff1660e01b8152600401808273ffffffffffffffffffffffffffffffffffffffff1673ffffffffffffffffffffffffffffffffffffffff168152602001915050600060405180830381600087803b1580156200080757600080fd5b505af11580156200081c573d6000803e3d6000fd5b505050508073ffffffffffffffffffffffffffffffffffffffff16634c5a628c6040518163ffffffff1660e01b8152600401600060405180830381600087803b1580156200086957600080fd5b505af11580156200087e573d6000803e3d6000fd5b505050505050505050505050505050620008af565b6127278062000a0e83390190565b6150de806200313583390190565b61014f80620008bf6000396000f3fe608060405234801561001057600080fd5b50600436106100365760003560e01c80638c8e8fee1461003b578063fdde984714610085575b600080fd5b6100436100cf565b604051808273ffffffffffffffffffffffffffffffffffffffff1673ffffffffffffffffffffffffffffffffffffffff16815260200191505060405180910390f35b61008d6100f5565b604051808273ffffffffffffffffffffffffffffffffffffffff1673ffffffffffffffffffffffffffffffffffffffff16815260200191505060405180910390f35b600160009054906101000a900473ffffffffffffffffffffffffffffffffffffffff1681565b6000809054906101000a900473ffffffffffffffffffffffffffffffffffffffff168156fea265627a7a72315820d2e500148aaadac1e474b5e51c0512b08cf9ec108520bfa0ebc63a5f440ba12564736f6c6343000510003260806040523480156200001157600080fd5b506040516200272738038062002727833981810160405260608110156200003757600080fd5b81019080805160405193929190846401000000008211156200005857600080fd5b838201915060208201858111156200006f57600080fd5b82518660018202830111640100000000821117156200008d57600080fd5b8083526020830192505050908051906020019080838360005b83811015620000c3578082015181840152602081019050620000a6565b50505050905090810190601f168015620000f15780820380516001836020036101000a031916815260200191505b50604052602001805160405193929190846401000000008211156200011557600080fd5b838201915060208201858111156200012c57600080fd5b82518660018202830111640100000000821117156200014a57600080fd5b8083526020830192505050908051906020019080838360005b838110156200018057808201518184015260208101905062000163565b50505050905090810190601f168015620001ae5780820380516001836020036101000a031916815260200191505b506040526020018051906020019092919050505082826012620001e6620001da6200027a60201b60201c565b6200028260201b60201c565b8260049080519060200190620001fe92919062000508565b5081600590805190602001906200021792919062000508565b5080600660006101000a81548160ff021916908360ff160217905550505050620002566200024a6200027a60201b60201c565b620002e360201b60201c565b6000600860006101000a81548160ff021916908315150217905550505050620005b7565b600033905090565b6200029d8160036200034460201b62001e8a1790919060201c565b8073ffffffffffffffffffffffffffffffffffffffff167f6ae172837ea30b801fbfcdd4108aa1d5bf8ff775444fd70256b44e6bf3dfc3f660405160405180910390a250565b620002fe8160076200034460201b62001e8a1790919060201c565b8073ffffffffffffffffffffffffffffffffffffffff167f6719d08c1888103bea251a4ed56406bd0c3e69723c8a1686e017e7bbe159b6f860405160405180910390a250565b6200035682826200042860201b60201c565b15620003ca576040517f08c379a000000000000000000000000000000000000000000000000000000000815260040180806020018281038252601f8152602001807f526f6c65733a206163636f756e7420616c72656164792068617320726f6c650081525060200191505060405180910390fd5b60018260000160008373ffffffffffffffffffffffffffffffffffffffff1673ffffffffffffffffffffffffffffffffffffffff16815260200190815260200160002060006101000a81548160ff0219169083151502179055505050565b60008073ffffffffffffffffffffffffffffffffffffffff168273ffffffffffffffffffffffffffffffffffffffff161415620004b1576040517f08c379a0000000000000000000000000000000000000000000000000000000008152600401808060200182810382526022815260200180620027056022913960400191505060405180910390fd5b8260000160008373ffffffffffffffffffffffffffffffffffffffff1673ffffffffffffffffffffffffffffffffffffffff16815260200190815260200160002060009054906101000a900460ff16905092915050565b828054600181600116156101000203166002900490600052602060002090601f016020900481019282601f106200054b57805160ff19168380011785556200057c565b828001600101855582156200057c579182015b828111156200057b5782518255916020019190600101906200055e565b5b5090506200058b91906200058f565b5090565b620005b491905b80821115620005b057600081600090555060010162000596565b5090565b90565b61213e80620005c76000396000f3fe608060405234801561001057600080fd5b50600436106101375760003560e01c80636ef8d66d116100b8578063983b2d561161007c578063983b2d561461057457806398650275146105b8578063a457c2d7146105c2578063a9059cbb14610628578063aa271e1a1461068e578063dd62ed3e146106ea57610137565b80636ef8d66d1461044157806370a082311461044b57806382dc1ec4146104a35780638456cb59146104e757806395d89b41146104f157610137565b806339509351116100ff57806339509351146102ed5780633f4ba83a1461035357806340c10f191461035d57806346fbf68e146103c35780635c975abb1461041f57610137565b806306fdde031461013c578063095ea7b3146101bf57806318160ddd1461022557806323b872dd14610243578063313ce567146102c9575b600080fd5b610144610762565b6040518080602001828103825283818151815260200191508051906020019080838360005b83811015610184578082015181840152602081019050610169565b50505050905090810190601f1680156101b15780820380516001836020036101000a031916815260200191505b509250505060405180910390f35b61020b600480360360408110156101d557600080fd5b81019080803573ffffffffffffffffffffffffffffffffffffffff16906020019092919080359060200190929190505050610804565b604051808215151515815260200191505060405180910390f35b61022d61089b565b6040518082815260200191505060405180910390f35b6102af6004803603606081101561025957600080fd5b81019080803573ffffffffffffffffffffffffffffffffffffffff169060200190929190803573ffffffffffffffffffffffffffffffffffffffff169060200190929190803590602001909291905050506108a5565b604051808215151515815260200191505060405180910390f35b6102d161093e565b604051808260ff1660ff16815260200191505060405180910390f35b6103396004803603604081101561030357600080fd5b81019080803573ffffffffffffffffffffffffffffffffffffffff16906020019092919080359060200190929190505050610955565b604051808215151515815260200191505060405180910390f35b61035b6109ec565b005b6103a96004803603604081101561037357600080fd5b81019080803573ffffffffffffffffffffffffffffffffffffffff16906020019092919080359060200190929190505050610b5a565b604051808215151515815260200191505060405180910390f35b610405600480360360208110156103d957600080fd5b81019080803573ffffffffffffffffffffffffffffffffffffffff169060200190929190505050610bd5565b604051808215151515815260200191505060405180910390f35b610427610bf2565b604051808215151515815260200191505060405180910390f35b610449610c09565b005b61048d6004803603602081101561046157600080fd5b81019080803573ffffffffffffffffffffffffffffffffffffffff169060200190929190505050610c1b565b6040518082815260200191505060405180910390f35b6104e5600480360360208110156104b957600080fd5b81019080803573ffffffffffffffffffffffffffffffffffffffff169060200190929190505050610c63565b005b6104ef610cd4565b005b6104f9610e43565b6040518080602001828103825283818151815260200191508051906020019080838360005b8381101561053957808201518184015260208101905061051e565b50505050905090810190601f1680156105665780820380516001836020036101000a031916815260200191505b509250505060405180910390f35b6105b66004803603602081101561058a57600080fd5b81019080803573ffffffffffffffffffffffffffffffffffffffff169060200190929190505050610ee5565b005b6105c0610f56565b005b61060e600480360360408110156105d857600080fd5b81019080803573ffffffffffffffffffffffffffffffffffffffff16906020019092919080359060200190929190505050610f68565b604051808215151515815260200191505060405180910390f35b6106746004803603604081101561063e57600080fd5b81019080803573ffffffffffffffffffffffffffffffffffffffff16906020019092919080359060200190929190505050610fff565b604051808215151515815260200191505060405180910390f35b6106d0600480360360208110156106a457600080fd5b81019080803573ffffffffffffffffffffffffffffffffffffffff169060200190929190505050611096565b604051808215151515815260200191505060405180910390f35b61074c6004803603604081101561070057600080fd5b81019080803573ffffffffffffffffffffffffffffffffffffffff169060200190929190803573ffffffffffffffffffffffffffffffffffffffff1690602001909291905050506110b3565b6040518082815260200191505060405180910390f35b606060048054600181600116156101000203166002900480601f0160208091040260200160405190810160405280929190818152602001828054600181600116156101000203166002900480156107fa5780601f106107cf576101008083540402835291602001916107fa565b820191906000526020600020905b8154815290600101906020018083116107dd57829003601f168201915b5050505050905090565b6000600860009054906101000a900460ff1615610889576040517f08c379a00000000000000000000000000000000000000000000000000000000081526004018080602001828103825260108152602001807f5061757361626c653a207061757365640000000000000000000000000000000081525060200191505060405180910390fd5b610893838361113a565b905092915050565b6000600254905090565b6000600860009054906101000a900460ff161561092a576040517f08c379a00000000000000000000000000000000000000000000000000000000081526004018080602001828103825260108152602001807f5061757361626c653a207061757365640000000000000000000000000000000081525060200191505060405180910390fd5b610935848484611158565b90509392505050565b6000600660009054906101000a900460ff16905090565b6000600860009054906101000a900460ff16156109da576040517f08c379a00000000000000000000000000000000000000000000000000000000081526004018080602001828103825260108152602001807f5061757361626c653a207061757365640000000000000000000000000000000081525060200191505060405180910390fd5b6109e48383611231565b905092915050565b6109fc6109f76112e4565b610bd5565b610a51576040517f08c379a0000000000000000000000000000000000000000000000000000000008152600401808060200182810382526030815260200180611f896030913960400191505060405180910390fd5b600860009054906101000a900460ff16610ad3576040517f08c379a00000000000000000000000000000000000000000000000000000000081526004018080602001828103825260148152602001807f5061757361626c653a206e6f742070617573656400000000000000000000000081525060200191505060405180910390fd5b6000600860006101000a81548160ff0219169083151502179055507f5db9ee0a495bf2e6ff9c91a7834c1ba4fdd244a5e8aa4e537bd38aeae4b073aa610b176112e4565b604051808273ffffffffffffffffffffffffffffffffffffffff1673ffffffffffffffffffffffffffffffffffffffff16815260200191505060405180910390a1565b6000610b6c610b676112e4565b611096565b610bc1576040517f08c379a00000000000000000000000000000000000000000000000000000000081526004018080602001828103825260308152602001806120016030913960400191505060405180910390fd5b610bcb83836112ec565b6001905092915050565b6000610beb8260076114a790919063ffffffff16565b9050919050565b6000600860009054906101000a900460ff16905090565b610c19610c146112e4565b611585565b565b60008060008373ffffffffffffffffffffffffffffffffffffffff1673ffffffffffffffffffffffffffffffffffffffff168152602001908152602001600020549050919050565b610c73610c6e6112e4565b610bd5565b610cc8576040517f08c379a0000000000000000000000000000000000000000000000000000000008152600401808060200182810382526030815260200180611f896030913960400191505060405180910390fd5b610cd1816115df565b50565b610ce4610cdf6112e4565b610bd5565b610d39576040517f08c379a0000000000000000000000000000000000000000000000000000000008152600401808060200182810382526030815260200180611f896030913960400191505060405180910390fd5b600860009054906101000a900460ff1615610dbc576040517f08c379a00000000000000000000000000000000000000000000000000000000081526004018080602001828103825260108152602001807f5061757361626c653a207061757365640000000000000000000000000000000081525060200191505060405180910390fd5b6001600860006101000a81548160ff0219169083151502179055507f62e78cea01bee320cd4e420270b5ea74000d11b0c9f74754ebdbfc544b05a258610e006112e4565b604051808273ffffffffffffffffffffffffffffffffffffffff1673ffffffffffffffffffffffffffffffffffffffff16815260200191505060405180910390a1565b606060058054600181600116156101000203166002900480601f016020809104026020016040519081016040528092919081815260200182805460018160011615610100020316600290048015610edb5780601f10610eb057610100808354040283529160200191610edb565b820191906000526020600020905b815481529060010190602001808311610ebe57829003601f168201915b5050505050905090565b610ef5610ef06112e4565b611096565b610f4a576040517f08c379a00000000000000000000000000000000000000000000000000000000081526004018080602001828103825260308152602001806120016030913960400191505060405180910390fd5b610f5381611639565b50565b610f66610f616112e4565b611693565b565b6000600860009054906101000a900460ff1615610fed576040517f08c379a00000000000000000000000000000000000000000000000000000000081526004018080602001828103825260108152602001807f5061757361626c653a207061757365640000000000000000000000000000000081525060200191505060405180910390fd5b610ff783836116ed565b905092915050565b6000600860009054906101000a900460ff1615611084576040517f08c379a00000000000000000000000000000000000000000000000000000000081526004018080602001828103825260108152602001807f5061757361626c653a207061757365640000000000000000000000000000000081525060200191505060405180910390fd5b61108e83836117ba565b905092915050565b60006110ac8260036114a790919063ffffffff16565b9050919050565b6000600160008473ffffffffffffffffffffffffffffffffffffffff1673ffffffffffffffffffffffffffffffffffffffff16815260200190815260200160002060008373ffffffffffffffffffffffffffffffffffffffff1673ffffffffffffffffffffffffffffffffffffffff16815260200190815260200160002054905092915050565b600061114e6111476112e4565b84846117d8565b6001905092915050565b60006111658484846119cf565b611226846111716112e4565b6112218560405180606001604052806028815260200161205260289139600160008b73ffffffffffffffffffffffffffffffffffffffff1673ffffffffffffffffffffffffffffffffffffffff16815260200190815260200160002060006111d76112e4565b73ffffffffffffffffffffffffffffffffffffffff1673ffffffffffffffffffffffffffffffffffffffff16815260200190815260200160002054611c859092919063ffffffff16565b6117d8565b600190509392505050565b60006112da61123e6112e4565b846112d5856001600061124f6112e4565b73ffffffffffffffffffffffffffffffffffffffff1673ffffffffffffffffffffffffffffffffffffffff16815260200190815260200160002060008973ffffffffffffffffffffffffffffffffffffffff1673ffffffffffffffffffffffffffffffffffffffff16815260200190815260200160002054611d4590919063ffffffff16565b6117d8565b6001905092915050565b600033905090565b600073ffffffffffffffffffffffffffffffffffffffff168273ffffffffffffffffffffffffffffffffffffffff16141561138f576040517f08c379a000000000000000000000000000000000000000000000000000000000815260040180806020018281038252601f8152602001807f45524332303a206d696e7420746f20746865207a65726f20616464726573730081525060200191505060405180910390fd5b6113a481600254611d4590919063ffffffff16565b6002819055506113fb816000808573ffffffffffffffffffffffffffffffffffffffff1673ffffffffffffffffffffffffffffffffffffffff16815260200190815260200160002054611d4590919063ffffffff16565b6000808473ffffffffffffffffffffffffffffffffffffffff1673ffffffffffffffffffffffffffffffffffffffff168152602001908152602001600020819055508173ffffffffffffffffffffffffffffffffffffffff16600073ffffffffffffffffffffffffffffffffffffffff167fddf252ad1be2c89b69c2b068fc378daa952ba7f163c4a11628f55a4df523b3ef836040518082815260200191505060405180910390a35050565b60008073ffffffffffffffffffffffffffffffffffffffff168273ffffffffffffffffffffffffffffffffffffffff16141561152e576040517f08c379a000000000000000000000000000000000000000000000000000000000815260040180806020018281038252602281526020018061207a6022913960400191505060405180910390fd5b8260000160008373ffffffffffffffffffffffffffffffffffffffff1673ffffffffffffffffffffffffffffffffffffffff16815260200190815260200160002060009054906101000a900460ff16905092915050565b611599816007611dcd90919063ffffffff16565b8073ffffffffffffffffffffffffffffffffffffffff167fcd265ebaf09df2871cc7bd4133404a235ba12eff2041bb89d9c714a2621c7c7e60405160405180910390a250565b6115f3816007611e8a90919063ffffffff16565b8073ffffffffffffffffffffffffffffffffffffffff167f6719d08c1888103bea251a4ed56406bd0c3e69723c8a1686e017e7bbe159b6f860405160405180910390a250565b61164d816003611e8a90919063ffffffff16565b8073ffffffffffffffffffffffffffffffffffffffff167f6ae172837ea30b801fbfcdd4108aa1d5bf8ff775444fd70256b44e6bf3dfc3f660405160405180910390a250565b6116a7816003611dcd90919063ffffffff16565b8073ffffffffffffffffffffffffffffffffffffffff167fe94479a9f7e1952cc78f2d6baab678adc1b772d936c6583def489e524cb6669260405160405180910390a250565b60006117b06116fa6112e4565b846117ab856040518060600160405280602581526020016120e560259139600160006117246112e4565b73ffffffffffffffffffffffffffffffffffffffff1673ffffffffffffffffffffffffffffffffffffffff16815260200190815260200160002060008a73ffffffffffffffffffffffffffffffffffffffff1673ffffffffffffffffffffffffffffffffffffffff16815260200190815260200160002054611c859092919063ffffffff16565b6117d8565b6001905092915050565b60006117ce6117c76112e4565b84846119cf565b6001905092915050565b600073ffffffffffffffffffffffffffffffffffffffff168373ffffffffffffffffffffffffffffffffffffffff16141561185e576040517f08c379a00000000000000000000000000000000000000000000000000000000081526004018080602001828103825260248152602001806120c16024913960400191505060405180910390fd5b600073ffffffffffffffffffffffffffffffffffffffff168273ffffffffffffffffffffffffffffffffffffffff1614156118e4576040517f08c379a0000000000000000000000000000000000000000000000000000000008152600401808060200182810382526022815260200180611fb96022913960400191505060405180910390fd5b80600160008573ffffffffffffffffffffffffffffffffffffffff1673ffffffffffffffffffffffffffffffffffffffff16815260200190815260200160002060008473ffffffffffffffffffffffffffffffffffffffff1673ffffffffffffffffffffffffffffffffffffffff168152602001908152602001600020819055508173ffffffffffffffffffffffffffffffffffffffff168373ffffffffffffffffffffffffffffffffffffffff167f8c5be1e5ebec7d5bd14f71427d1e84f3dd0314c0f7b2291e5b200ac8c7c3b925836040518082815260200191505060405180910390a3505050565b600073ffffffffffffffffffffffffffffffffffffffff168373ffffffffffffffffffffffffffffffffffffffff161415611a55576040517f08c379a000000000000000000000000000000000000000000000000000000000815260040180806020018281038252602581526020018061209c6025913960400191505060405180910390fd5b600073ffffffffffffffffffffffffffffffffffffffff168273ffffffffffffffffffffffffffffffffffffffff161415611adb576040517f08c379a0000000000000000000000000000000000000000000000000000000008152600401808060200182810382526023815260200180611f666023913960400191505060405180910390fd5b611b4681604051806060016040528060268152602001611fdb602691396000808773ffffffffffffffffffffffffffffffffffffffff1673ffffffffffffffffffffffffffffffffffffffff16815260200190815260200160002054611c859092919063ffffffff16565b6000808573ffffffffffffffffffffffffffffffffffffffff1673ffffffffffffffffffffffffffffffffffffffff16815260200190815260200160002081905550611bd9816000808573ffffffffffffffffffffffffffffffffffffffff1673ffffffffffffffffffffffffffffffffffffffff16815260200190815260200160002054611d4590919063ffffffff16565b6000808473ffffffffffffffffffffffffffffffffffffffff1673ffffffffffffffffffffffffffffffffffffffff168152602001908152602001600020819055508173ffffffffffffffffffffffffffffffffffffffff168373ffffffffffffffffffffffffffffffffffffffff167fddf252ad1be2c89b69c2b068fc378daa952ba7f163c4a11628f55a4df523b3ef836040518082815260200191505060405180910390a3505050565b6000838311158290611d32576040517f08c379a00000000000000000000000000000000000000000000000000000000081526004018080602001828103825283818151815260200191508051906020019080838360005b83811015611cf7578082015181840152602081019050611cdc565b50505050905090810190601f168015611d245780820380516001836020036101000a031916815260200191505b509250505060405180910390fd5b5060008385039050809150509392505050565b600080828401905083811015611dc3576040517f08c379a000000000000000000000000000000000000000000000000000000000815260040180806020018281038252601b8152602001807f536166654d6174683a206164646974696f6e206f766572666c6f77000000000081525060200191505060405180910390fd5b8091505092915050565b611dd782826114a7565b611e2c576040517f08c379a00000000000000000000000000000000000000000000000000000000081526004018080602001828103825260218152602001806120316021913960400191505060405180910390fd5b60008260000160008373ffffffffffffffffffffffffffffffffffffffff1673ffffffffffffffffffffffffffffffffffffffff16815260200190815260200160002060006101000a81548160ff0219169083151502179055505050565b611e9482826114a7565b15611f07576040517f08c379a000000000000000000000000000000000000000000000000000000000815260040180806020018281038252601f8152602001807f526f6c65733a206163636f756e7420616c72656164792068617320726f6c650081525060200191505060405180910390fd5b60018260000160008373ffffffffffffffffffffffffffffffffffffffff1673ffffffffffffffffffffffffffffffffffffffff16815260200190815260200160002060006101000a81548160ff021916908315150217905550505056fe45524332303a207472616e7366657220746f20746865207a65726f2061646472657373506175736572526f6c653a2063616c6c657220646f6573206e6f742068617665207468652050617573657220726f6c6545524332303a20617070726f766520746f20746865207a65726f206164647265737345524332303a207472616e7366657220616d6f756e7420657863656564732062616c616e63654d696e746572526f6c653a2063616c6c657220646f6573206e6f74206861766520746865204d696e74657220726f6c65526f6c65733a206163636f756e7420646f6573206e6f74206861766520726f6c6545524332303a207472616e7366657220616d6f756e74206578636565647320616c6c6f77616e6365526f6c65733a206163636f756e7420697320746865207a65726f206164647265737345524332303a207472616e736665722066726f6d20746865207a65726f206164647265737345524332303a20617070726f76652066726f6d20746865207a65726f206164647265737345524332303a2064656372656173656420616c6c6f77616e63652062656c6f77207a65726fa265627a7a7231582033ea260d35f31d5734afe91fbe6527c1d4097985b65841f6a9fe30429af6db7164736f6c63430005100032526f6c65733a206163636f756e7420697320746865207a65726f2061646472657373608060405266071afd498d0000600e556802b5e3af16b1880000600f556000601160006101000a81548160ff021916908360018111156200003c57fe5b02179055506046601255600a601355600a601455600a60155560006016553480156200006757600080fd5b50604051620050de380380620050de83398181016040526101608110156200008e57600080fd5b8101908080519060200190929190805190602001909291908051906020019092919080519060200190929190805190602001909291908051906020019092919080519060200190929190805190602001909291908051906020019092919080519060200190929190805190602001909291905050508487878a8e8e8e6200012a6200011e6200073d60201b60201c565b6200074560201b60201c565b6001600260006101000a81548160ff02191690831515021790555060008311620001bc576040517f08c379a00000000000000000000000000000000000000000000000000000000081526004018080602001828103825260148152602001807f43726f776473616c653a2072617465206973203000000000000000000000000081525060200191505060405180910390fd5b600073ffffffffffffffffffffffffffffffffffffffff168273ffffffffffffffffffffffffffffffffffffffff16141562000244576040517f08c379a0000000000000000000000000000000000000000000000000000000008152600401808060200182810382526025815260200180620050b96025913960400191505060405180910390fd5b600073ffffffffffffffffffffffffffffffffffffffff168173ffffffffffffffffffffffffffffffffffffffff161415620002cc576040517f08c379a0000000000000000000000000000000000000000000000000000000008152600401808060200182810382526024815260200180620050736024913960400191505060405180910390fd5b8260048190555081600360006101000a81548173ffffffffffffffffffffffffffffffffffffffff021916908373ffffffffffffffffffffffffffffffffffffffff16021790555080600260016101000a81548173ffffffffffffffffffffffffffffffffffffffff021916908373ffffffffffffffffffffffffffffffffffffffff16021790555050505060008111620003cf576040517f08c379a00000000000000000000000000000000000000000000000000000000081526004018080602001828103825260198152602001807f43617070656443726f776473616c653a2063617020697320300000000000000081525060200191505060405180910390fd5b80600681905550504282101562000432576040517f08c379a0000000000000000000000000000000000000000000000000000000008152600401808060200182810382526033815260200180620050096033913960400191505060405180910390fd5b8181116200048c576040517f08c379a00000000000000000000000000000000000000000000000000000000081526004018080602001828103825260378152602001806200503c6037913960400191505060405180910390fd5b816007819055508060088190555050506000600960006101000a81548160ff021916908315150217905550600081116200052e576040517f08c379a000000000000000000000000000000000000000000000000000000000815260040180806020018281038252601e8152602001807f526566756e6461626c6543726f776473616c653a20676f616c2069732030000081525060200191505060405180910390fd5b6200053e620007a660201b60201c565b6040516200054c9062000994565b808273ffffffffffffffffffffffffffffffffffffffff1673ffffffffffffffffffffffffffffffffffffffff168152602001915050604051809103906000f0801580156200059f573d6000803e3d6000fd5b50600b60006101000a81548173ffffffffffffffffffffffffffffffffffffffff021916908373ffffffffffffffffffffffffffffffffffffffff16021790555080600a8190555050604051620005f690620009a2565b604051809103906000f08015801562000613573d6000803e3d6000fd5b50600d60006101000a81548173ffffffffffffffffffffffffffffffffffffffff021916908373ffffffffffffffffffffffffffffffffffffffff160217905550878511156200066257600080fd5b83601760006101000a81548173ffffffffffffffffffffffffffffffffffffffff021916908373ffffffffffffffffffffffffffffffffffffffff16021790555082601860006101000a81548173ffffffffffffffffffffffffffffffffffffffff021916908373ffffffffffffffffffffffffffffffffffffffff16021790555081601960006101000a81548173ffffffffffffffffffffffffffffffffffffffff021916908373ffffffffffffffffffffffffffffffffffffffff16021790555080601a819055505050505050505050505050620009b0565b600033905090565b62000760816000620007d060201b6200220a1790919060201c565b8073ffffffffffffffffffffffffffffffffffffffff167f22380c05984257a1cb900161c713dd71d39e74820f1aea43bd3f1bdd2096129960405160405180910390a250565b6000600360009054906101000a900473ffffffffffffffffffffffffffffffffffffffff16905090565b620007e28282620008b460201b60201c565b1562000856576040517f08c379a000000000000000000000000000000000000000000000000000000000815260040180806020018281038252601f8152602001807f526f6c65733a206163636f756e7420616c72656164792068617320726f6c650081525060200191505060405180910390fd5b60018260000160008373ffffffffffffffffffffffffffffffffffffffff1673ffffffffffffffffffffffffffffffffffffffff16815260200190815260200160002060006101000a81548160ff0219169083151502179055505050565b60008073ffffffffffffffffffffffffffffffffffffffff168273ffffffffffffffffffffffffffffffffffffffff1614156200093d576040517f08c379a0000000000000000000000000000000000000000000000000000000008152600401808060200182810382526022815260200180620050976022913960400191505060405180910390fd5b8260000160008373ffffffffffffffffffffffffffffffffffffffff1673ffffffffffffffffffffffffffffffffffffffff16815260200190815260200160002060009054906101000a900460ff16905092915050565b61163280620033b783390190565b61062080620049e983390190565b6129f780620009c06000396000f3fe6080604052600436106102675760003560e01c8063781db83511610144578063bb5f747b116100b6578063d6cd94731161007a578063d6cd947314610be8578063ec0de26e14610bff578063ec8ac4d814610c56578063ed5db87414610c9a578063f45b9bed14610cc5578063fc0c546a14610cf057610267565b8063bb5f747b14610a39578063bb8b2b4714610aa2578063bffa55d514610b07578063c040e6b814610b58578063c440008e14610b9157610267565b8063a997f82f11610108578063a997f82f146108f7578063b25d7f5414610932578063b3f05b971461095d578063b63e53e01461098c578063b7a8807c146109e3578063b91d400114610a0e57610267565b8063781db835146107a15780637d3d6522146107ef578063864329e31461081e578063926f0c7b14610849578063a3a3382b146108a057610267565b806349df728c116101dd578063521eb273116101a1578063521eb273146105e757806353c08ea21461063e57806364ceed99146106695780636681b9fd146106c057806370a08231146106eb5780637362d9c81461075057610267565b806349df728c1461050e5780634b6753bc1461055f5780634bb278f31461058a5780634c5a628c146105a15780634f935945146105b857610267565b80633af32abf1161022f5780633af32abf1461039057806340193883146103f95780634042b66f1461042457806342e94c901461044f57806346daa242146104b457806347535d7b146104df57610267565b806310154bad146102695780631515bc2b146102ba578063291d9549146102e95780632c4e722e1461033a578063355274ea14610365575b005b34801561027557600080fd5b506102b86004803603602081101561028c57600080fd5b81019080803573ffffffffffffffffffffffffffffffffffffffff169060200190929190505050610d47565b005b3480156102c657600080fd5b506102cf610db8565b604051808215151515815260200191505060405180910390f35b3480156102f557600080fd5b506103386004803603602081101561030c57600080fd5b81019080803573ffffffffffffffffffffffffffffffffffffffff169060200190929190505050610dc4565b005b34801561034657600080fd5b5061034f610e35565b6040518082815260200191505060405180910390f35b34801561037157600080fd5b5061037a610e3f565b6040518082815260200191505060405180910390f35b34801561039c57600080fd5b506103df600480360360208110156103b357600080fd5b81019080803573ffffffffffffffffffffffffffffffffffffffff169060200190929190505050610e49565b604051808215151515815260200191505060405180910390f35b34801561040557600080fd5b5061040e610e66565b6040518082815260200191505060405180910390f35b34801561043057600080fd5b50610439610e70565b6040518082815260200191505060405180910390f35b34801561045b57600080fd5b5061049e6004803603602081101561047257600080fd5b81019080803573ffffffffffffffffffffffffffffffffffffffff169060200190929190505050610e7a565b6040518082815260200191505060405180910390f35b3480156104c057600080fd5b506104c9610e92565b6040518082815260200191505060405180910390f35b3480156104eb57600080fd5b506104f4610e98565b604051808215151515815260200191505060405180910390f35b34801561051a57600080fd5b5061055d6004803603602081101561053157600080fd5b81019080803573ffffffffffffffffffffffffffffffffffffffff169060200190929190505050610eb3565b005b34801561056b57600080fd5b50610574610f79565b6040518082815260200191505060405180910390f35b34801561059657600080fd5b5061059f610f83565b005b3480156105ad57600080fd5b506105b66110b4565b005b3480156105c457600080fd5b506105cd6110c6565b604051808215151515815260200191505060405180910390f35b3480156105f357600080fd5b506105fc6110da565b604051808273ffffffffffffffffffffffffffffffffffffffff1673ffffffffffffffffffffffffffffffffffffffff16815260200191505060405180910390f35b34801561064a57600080fd5b50610653611104565b6040518082815260200191505060405180910390f35b34801561067557600080fd5b5061067e61110a565b604051808273ffffffffffffffffffffffffffffffffffffffff1673ffffffffffffffffffffffffffffffffffffffff16815260200191505060405180910390f35b3480156106cc57600080fd5b506106d5611130565b6040518082815260200191505060405180910390f35b3480156106f757600080fd5b5061073a6004803603602081101561070e57600080fd5b81019080803573ffffffffffffffffffffffffffffffffffffffff16906020019092919050505061113a565b6040518082815260200191505060405180910390f35b34801561075c57600080fd5b5061079f6004803603602081101561077357600080fd5b81019080803573ffffffffffffffffffffffffffffffffffffffff169060200190929190505050611183565b005b6107ed600480360360408110156107b757600080fd5b81019080803573ffffffffffffffffffffffffffffffffffffffff169060200190929190803590602001909291905050506111f4565b005b3480156107fb57600080fd5b50610804611383565b604051808215151515815260200191505060405180910390f35b34801561082a57600080fd5b50610833611397565b6040518082815260200191505060405180910390f35b34801561085557600080fd5b5061085e61139d565b604051808273ffffffffffffffffffffffffffffffffffffffff1673ffffffffffffffffffffffffffffffffffffffff16815260200191505060405180910390f35b3480156108ac57600080fd5b506108b56113c3565b604051808273ffffffffffffffffffffffffffffffffffffffff1673ffffffffffffffffffffffffffffffffffffffff16815260200191505060405180910390f35b34801561090357600080fd5b506109306004803603602081101561091a57600080fd5b81019080803590602001909291905050506113e9565b005b34801561093e57600080fd5b506109476114d3565b6040518082815260200191505060405180910390f35b34801561096957600080fd5b506109726114d9565b604051808215151515815260200191505060405180910390f35b34801561099857600080fd5b506109a16114f0565b604051808273ffffffffffffffffffffffffffffffffffffffff1673ffffffffffffffffffffffffffffffffffffffff16815260200191505060405180910390f35b3480156109ef57600080fd5b506109f8611516565b6040518082815260200191505060405180910390f35b348015610a1a57600080fd5b50610a23611520565b6040518082815260200191505060405180910390f35b348015610a4557600080fd5b50610a8860048036036020811015610a5c57600080fd5b81019080803573ffffffffffffffffffffffffffffffffffffffff169060200190929190505050611526565b604051808215151515815260200191505060405180910390f35b348015610aae57600080fd5b50610af160048036036020811015610ac557600080fd5b81019080803573ffffffffffffffffffffffffffffffffffffffff169060200190929190505050611543565b6040518082815260200191505060405180910390f35b348015610b1357600080fd5b50610b5660048036036020811015610b2a57600080fd5b81019080803573ffffffffffffffffffffffffffffffffffffffff16906020019092919050505061158c565b005b348015610b6457600080fd5b50610b6d611703565b60405180826001811115610b7d57fe5b60ff16815260200191505060405180910390f35b348015610b9d57600080fd5b50610ba6611716565b604051808273ffffffffffffffffffffffffffffffffffffffff1673ffffffffffffffffffffffffffffffffffffffff16815260200191505060405180910390f35b348015610bf457600080fd5b50610bfd61173c565b005b348015610c0b57600080fd5b50610c1461174e565b604051808273ffffffffffffffffffffffffffffffffffffffff1673ffffffffffffffffffffffffffffffffffffffff16815260200191505060405180910390f35b610c9860048036036020811015610c6c57600080fd5b81019080803573ffffffffffffffffffffffffffffffffffffffff169060200190929190505050611774565b005b348015610ca657600080fd5b50610caf611902565b6040518082815260200191505060405180910390f35b348015610cd157600080fd5b50610cda611908565b6040518082815260200191505060405180910390f35b348015610cfc57600080fd5b50610d0561190e565b604051808273ffffffffffffffffffffffffffffffffffffffff1673ffffffffffffffffffffffffffffffffffffffff16815260200191505060405180910390f35b610d57610d52611938565b611526565b610dac576040517f08c379a00000000000000000000000000000000000000000000000000000000081526004018080602001828103825260408152602001806128ce6040913960400191505060405180910390fd5b610db581611940565b50565b60006008544211905090565b610dd4610dcf611938565b611526565b610e29576040517f08c379a00000000000000000000000000000000000000000000000000000000081526004018080602001828103825260408152602001806128ce6040913960400191505060405180910390fd5b610e328161199a565b50565b6000600454905090565b6000600654905090565b6000610e5f8260016119f490919063ffffffff16565b9050919050565b6000600a54905090565b6000600554905090565b60106020528060005260406000206000915090505481565b60125481565b60006007544210158015610eae57506008544211155b905090565b610ebb6114d9565b610f10576040517f08c379a000000000000000000000000000000000000000000000000000000000815260040180806020018281038252602e8152602001806127d3602e913960400191505060405180910390fd5b610f18611383565b610f6d576040517f08c379a00000000000000000000000000000000000000000000000000000000081526004018080602001828103825260318152602001806128016031913960400191505060405180910390fd5b610f7681611ad2565b50565b6000600854905090565b600960009054906101000a900460ff1615610fe9576040517f08c379a000000000000000000000000000000000000000000000000000000000815260040180806020018281038252602781526020018061290e6027913960400191505060405180910390fd5b610ff1610db8565b611063576040517f08c379a00000000000000000000000000000000000000000000000000000000081526004018080602001828103825260208152602001807f46696e616c697a61626c6543726f776473616c653a206e6f7420636c6f73656481525060200191505060405180910390fd5b6001600960006101000a81548160ff021916908315150217905550611086611d11565b7f9270cc390c096600a1c17c44345a1ba689fafd99d97487b10cfccf86cf73183660405160405180910390a1565b6110c46110bf611938565b611eb4565b565b60006006546110d3610e70565b1015905090565b6000600360009054906101000a900473ffffffffffffffffffffffffffffffffffffffff16905090565b60135481565b601b60009054906101000a900473ffffffffffffffffffffffffffffffffffffffff1681565b6000601654905090565b6000600c60008373ffffffffffffffffffffffffffffffffffffffff1673ffffffffffffffffffffffffffffffffffffffff168152602001908152602001600020549050919050565b61119361118e611938565b611526565b6111e8576040517f08c379a00000000000000000000000000000000000000000000000000000000081526004018080602001828103825260408152602001806128ce6040913960400191505060405180910390fd5b6111f181611f0e565b50565b600260009054906101000a900460ff16611276576040517f08c379a000000000000000000000000000000000000000000000000000000000815260040180806020018281038252601f8152602001807f5265656e7472616e637947756172643a207265656e7472616e742063616c6c0081525060200191505060405180910390fd5b6000600260006101000a81548160ff02191690831515021790555060008190506112a08382611f68565b60006112ab82611fd4565b90506112c282601654611ff290919063ffffffff16565b6016819055506112d2848261207a565b8373ffffffffffffffffffffffffffffffffffffffff166112f1611938565b73ffffffffffffffffffffffffffffffffffffffff167f6faf93231a456e552dbc9961f58d9713ee4f2e69d15f1975b050ef0911053a7b8484604051808381526020018281526020019250505060405180910390a3611350848361213f565b611358612143565b6113628483612206565b50506001600260006101000a81548160ff0219169083151502179055505050565b6000600a54611390610e70565b1015905090565b60145481565b601960009054906101000a900473ffffffffffffffffffffffffffffffffffffffff1681565b601860009054906101000a900473ffffffffffffffffffffffffffffffffffffffff1681565b80600060018111156113f757fe5b1415611426576000601160006101000a81548160ff0219169083600181111561141c57fe5b021790555061145f565b8060018081111561143357fe5b141561145e576001601160006101000a81548160ff0219169083600181111561145857fe5b02179055505b5b6000600181111561146c57fe5b601160009054906101000a900460ff16600181111561148757fe5b141561149a5760006101f49050506114d0565b6001808111156114a657fe5b601160009054906101000a900460ff1660018111156114c157fe5b14156114cf57600060fa9050505b5b50565b600e5481565b6000600960009054906101000a900460ff16905090565b601d60009054906101000a900473ffffffffffffffffffffffffffffffffffffffff1681565b6000600754905090565b601a5481565b600061153c8260006119f490919063ffffffff16565b9050919050565b6000601060008373ffffffffffffffffffffffffffffffffffffffff1673ffffffffffffffffffffffffffffffffffffffff168152602001908152602001600020549050919050565b6115946114d9565b6115e9576040517f08c379a00000000000000000000000000000000000000000000000000000000081526004018080602001828103825260228152602001806129a16022913960400191505060405180910390fd5b6115f1611383565b15611647576040517f08c379a00000000000000000000000000000000000000000000000000000000081526004018080602001828103825260218152602001806129356021913960400191505060405180910390fd5b600b60009054906101000a900473ffffffffffffffffffffffffffffffffffffffff1673ffffffffffffffffffffffffffffffffffffffff166351cff8d9826040518263ffffffff1660e01b8152600401808273ffffffffffffffffffffffffffffffffffffffff1673ffffffffffffffffffffffffffffffffffffffff168152602001915050600060405180830381600087803b1580156116e857600080fd5b505af11580156116fc573d6000803e3d6000fd5b5050505050565b601160009054906101000a900460ff1681565b601760009054906101000a900473ffffffffffffffffffffffffffffffffffffffff1681565b61174c611747611938565b61199a565b565b601c60009054906101000a900473ffffffffffffffffffffffffffffffffffffffff1681565b600260009054906101000a900460ff166117f6576040517f08c379a000000000000000000000000000000000000000000000000000000000815260040180806020018281038252601f8152602001807f5265656e7472616e637947756172643a207265656e7472616e742063616c6c0081525060200191505060405180910390fd5b6000600260006101000a81548160ff02191690831515021790555060003490506118208282611f68565b600061182b82611fd4565b905061184282600554611ff290919063ffffffff16565b600581905550611852838261207a565b8273ffffffffffffffffffffffffffffffffffffffff16611871611938565b73ffffffffffffffffffffffffffffffffffffffff167f6faf93231a456e552dbc9961f58d9713ee4f2e69d15f1975b050ef0911053a7b8484604051808381526020018281526020019250505060405180910390a36118d0838361213f565b6118d8612143565b6118e28383612206565b50506001600260006101000a81548160ff02191690831515021790555050565b600f5481565b60155481565b6000600260019054906101000a900473ffffffffffffffffffffffffffffffffffffffff16905090565b600033905090565b61195481600161220a90919063ffffffff16565b8073ffffffffffffffffffffffffffffffffffffffff167fee1504a83b6d4a361f4c1dc78ab59bfa30d6a3b6612c403e86bb01ef2984295f60405160405180910390a250565b6119ae8160016122e590919063ffffffff16565b8073ffffffffffffffffffffffffffffffffffffffff167f270d9b30cf5b0793bbfd54c9d5b94aeb49462b8148399000265144a8722da6b660405160405180910390a250565b60008073ffffffffffffffffffffffffffffffffffffffff168273ffffffffffffffffffffffffffffffffffffffff161415611a7b576040517f08c379a00000000000000000000000000000000000000000000000000000000081526004018080602001828103825260228152602001806128ac6022913960400191505060405180910390fd5b8260000160008373ffffffffffffffffffffffffffffffffffffffff1673ffffffffffffffffffffffffffffffffffffffff16815260200190815260200160002060009054906101000a900460ff16905092915050565b611ada610db8565b611b2f576040517f08c379a00000000000000000000000000000000000000000000000000000000081526004018080602001828103825260218152602001806129806021913960400191505060405180910390fd5b6000600c60008373ffffffffffffffffffffffffffffffffffffffff1673ffffffffffffffffffffffffffffffffffffffff16815260200190815260200160002054905060008111611bcc576040517f08c379a00000000000000000000000000000000000000000000000000000000081526004018080602001828103825260388152602001806128536038913960400191505060405180910390fd5b6000600c60008473ffffffffffffffffffffffffffffffffffffffff1673ffffffffffffffffffffffffffffffffffffffff16815260200190815260200160002081905550600d60009054906101000a900473ffffffffffffffffffffffffffffffffffffffff1673ffffffffffffffffffffffffffffffffffffffff1663beabacc8611c5761190e565b84846040518463ffffffff1660e01b8152600401808473ffffffffffffffffffffffffffffffffffffffff1673ffffffffffffffffffffffffffffffffffffffff1681526020018373ffffffffffffffffffffffffffffffffffffffff1673ffffffffffffffffffffffffffffffffffffffff1681526020018281526020019350505050600060405180830381600087803b158015611cf557600080fd5b505af1158015611d09573d6000803e3d6000fd5b505050505050565b611d19611383565b15611e2757600b60009054906101000a900473ffffffffffffffffffffffffffffffffffffffff1673ffffffffffffffffffffffffffffffffffffffff166343d726d66040518163ffffffff1660e01b8152600401600060405180830381600087803b158015611d8857600080fd5b505af1158015611d9c573d6000803e3d6000fd5b50505050600b60009054906101000a900473ffffffffffffffffffffffffffffffffffffffff1673ffffffffffffffffffffffffffffffffffffffff16639af6549a6040518163ffffffff1660e01b8152600401600060405180830381600087803b158015611e0a57600080fd5b505af1158015611e1e573d6000803e3d6000fd5b50505050611eaa565b600b60009054906101000a900473ffffffffffffffffffffffffffffffffffffffff1673ffffffffffffffffffffffffffffffffffffffff16638c52dc416040518163ffffffff1660e01b8152600401600060405180830381600087803b158015611e9157600080fd5b505af1158015611ea5573d6000803e3d6000fd5b505050505b611eb26123a2565b565b611ec88160006122e590919063ffffffff16565b8073ffffffffffffffffffffffffffffffffffffffff167f0a8eb35e5ca14b3d6f28e4abf2f128dbab231a58b56e89beb5d636115001e16560405160405180910390a250565b611f2281600061220a90919063ffffffff16565b8073ffffffffffffffffffffffffffffffffffffffff167f22380c05984257a1cb900161c713dd71d39e74820f1aea43bd3f1bdd2096129960405160405180910390a250565b611f7182610e49565b611fc6576040517f08c379a00000000000000000000000000000000000000000000000000000000081526004018080602001828103825260418152602001806127926041913960600191505060405180910390fd5b611fd082826123a4565b5050565b6000611feb6004548361242c90919063ffffffff16565b9050919050565b600080828401905083811015612070576040517f08c379a000000000000000000000000000000000000000000000000000000000815260040180806020018281038252601b8152602001807f536166654d6174683a206164646974696f6e206f766572666c6f77000000000081525060200191505060405180910390fd5b8091505092915050565b6120cc81600c60008573ffffffffffffffffffffffffffffffffffffffff1673ffffffffffffffffffffffffffffffffffffffff16815260200190815260200160002054611ff290919063ffffffff16565b600c60008473ffffffffffffffffffffffffffffffffffffffff1673ffffffffffffffffffffffffffffffffffffffff1681526020019081526020016000208190555061213b600d60009054906101000a900473ffffffffffffffffffffffffffffffffffffffff16826124b2565b5050565b5050565b600b60009054906101000a900473ffffffffffffffffffffffffffffffffffffffff1673ffffffffffffffffffffffffffffffffffffffff1663f340fa013461218a611938565b6040518363ffffffff1660e01b8152600401808273ffffffffffffffffffffffffffffffffffffffff1673ffffffffffffffffffffffffffffffffffffffff1681526020019150506000604051808303818588803b1580156121eb57600080fd5b505af11580156121ff573d6000803e3d6000fd5b5050505050565b5050565b61221482826119f4565b15612287576040517f08c379a000000000000000000000000000000000000000000000000000000000815260040180806020018281038252601f8152602001807f526f6c65733a206163636f756e7420616c72656164792068617320726f6c650081525060200191505060405180910390fd5b60018260000160008373ffffffffffffffffffffffffffffffffffffffff1673ffffffffffffffffffffffffffffffffffffffff16815260200190815260200160002060006101000a81548160ff0219169083151502179055505050565b6122ef82826119f4565b612344576040517f08c379a00000000000000000000000000000000000000000000000000000000081526004018080602001828103825260218152602001806128326021913960400191505060405180910390fd5b60008260000160008373ffffffffffffffffffffffffffffffffffffffff1673ffffffffffffffffffffffffffffffffffffffff16815260200190815260200160002060006101000a81548160ff0219169083151502179055505050565b565b6123ac610e98565b61241e576040517f08c379a00000000000000000000000000000000000000000000000000000000081526004018080602001828103825260188152602001807f54696d656443726f776473616c653a206e6f74206f70656e000000000000000081525060200191505060405180910390fd5b61242882826125f1565b5050565b60008083141561243f57600090506124ac565b600082840290508284828161245057fe5b04146124a7576040517f08c379a000000000000000000000000000000000000000000000000000000000815260040180806020018281038252602181526020018061288b6021913960400191505060405180910390fd5b809150505b92915050565b6124ba61190e565b73ffffffffffffffffffffffffffffffffffffffff166340c10f1983836040518363ffffffff1660e01b8152600401808373ffffffffffffffffffffffffffffffffffffffff1673ffffffffffffffffffffffffffffffffffffffff16815260200182815260200192505050602060405180830381600087803b15801561254057600080fd5b505af1158015612554573d6000803e3d6000fd5b505050506040513d602081101561256a57600080fd5b81019080805190602001909291905050506125ed576040517f08c379a000000000000000000000000000000000000000000000000000000000815260040180806020018281038252601f8152602001807f4d696e74656443726f776473616c653a206d696e74696e67206661696c65640081525060200191505060405180910390fd5b5050565b6125fb8282612690565b6006546126188261260a610e70565b611ff290919063ffffffff16565b111561268c576040517f08c379a000000000000000000000000000000000000000000000000000000000815260040180806020018281038252601d8152602001807f43617070656443726f776473616c653a2063617020657863656564656400000081525060200191505060405180910390fd5b5050565b600073ffffffffffffffffffffffffffffffffffffffff168273ffffffffffffffffffffffffffffffffffffffff161415612716576040517f08c379a000000000000000000000000000000000000000000000000000000000815260040180806020018281038252602a815260200180612956602a913960400191505060405180910390fd5b600081141561278d576040517f08c379a00000000000000000000000000000000000000000000000000000000081526004018080602001828103825260198152602001807f43726f776473616c653a20776569416d6f756e7420697320300000000000000081525060200191505060405180910390fd5b505056fe57686974656c69737443726f776473616c653a2062656e656669636961727920646f65736e27742068617665207468652057686974656c697374656420726f6c65526566756e6461626c65506f737444656c697665727943726f776473616c653a206e6f742066696e616c697a6564526566756e6461626c65506f737444656c697665727943726f776473616c653a20676f616c206e6f742072656163686564526f6c65733a206163636f756e7420646f6573206e6f74206861766520726f6c65506f737444656c697665727943726f776473616c653a2062656e6566696369617279206973206e6f742064756520616e7920746f6b656e73536166654d6174683a206d756c7469706c69636174696f6e206f766572666c6f77526f6c65733a206163636f756e7420697320746865207a65726f206164647265737357686974656c69737441646d696e526f6c653a2063616c6c657220646f6573206e6f742068617665207468652057686974656c69737441646d696e20726f6c6546696e616c697a61626c6543726f776473616c653a20616c72656164792066696e616c697a6564526566756e6461626c6543726f776473616c653a20676f616c207265616368656443726f776473616c653a2062656e656669636961727920697320746865207a65726f2061646472657373506f737444656c697665727943726f776473616c653a206e6f7420636c6f736564526566756e6461626c6543726f776473616c653a206e6f742066696e616c697a6564a265627a7a72315820e394462e153d2bfbd307336a4d9af4a69322bf55c1d93ccc86476efe91e72b9564736f6c63430005100032608060405234801561001057600080fd5b506040516116323803806116328339818101604052602081101561003357600080fd5b810190808051906020019092919050505060006100546101eb60201b60201c565b9050806000806101000a81548173ffffffffffffffffffffffffffffffffffffffff021916908373ffffffffffffffffffffffffffffffffffffffff1602179055507f4101e71e974f68df5e9730cc223280b41654676bbb052cdcc735c3337e64d2d981604051808273ffffffffffffffffffffffffffffffffffffffff1673ffffffffffffffffffffffffffffffffffffffff16815260200191505060405180910390a150600073ffffffffffffffffffffffffffffffffffffffff168173ffffffffffffffffffffffffffffffffffffffff161415610180576040517f08c379a000000000000000000000000000000000000000000000000000000000815260040180806020018281038252602d815260200180611605602d913960400191505060405180910390fd5b80600260016101000a81548173ffffffffffffffffffffffffffffffffffffffff021916908373ffffffffffffffffffffffffffffffffffffffff1602179055506000600260006101000a81548160ff021916908360028111156101e057fe5b0217905550506101f3565b600033905090565b611403806102026000396000f3fe6080604052600436106100a75760003560e01c80638c52dc41116100645780638c52dc41146102765780639af6549a1461028d578063c19d93fb146102a4578063c6dbdf61146102dd578063e3a9db1a14610334578063f340fa0114610399576100a7565b80632348238c146100ac57806338af3eed146100fd57806343d726d61461015457806351cff8d91461016b5780636809691a146101bc578063685ca1941461020d575b600080fd5b3480156100b857600080fd5b506100fb600480360360208110156100cf57600080fd5b81019080803573ffffffffffffffffffffffffffffffffffffffff1690602001909291905050506103dd565b005b34801561010957600080fd5b506101126105b5565b604051808273ffffffffffffffffffffffffffffffffffffffff1673ffffffffffffffffffffffffffffffffffffffff16815260200191505060405180910390f35b34801561016057600080fd5b506101696105df565b005b34801561017757600080fd5b506101ba6004803603602081101561018e57600080fd5b81019080803573ffffffffffffffffffffffffffffffffffffffff16906020019092919050505061075a565b005b3480156101c857600080fd5b5061020b600480360360208110156101df57600080fd5b81019080803573ffffffffffffffffffffffffffffffffffffffff1690602001909291905050506107c4565b005b34801561021957600080fd5b5061025c6004803603602081101561023057600080fd5b81019080803573ffffffffffffffffffffffffffffffffffffffff169060200190929190505050610974565b604051808215151515815260200191505060405180910390f35b34801561028257600080fd5b5061028b6109a6565b005b34801561029957600080fd5b506102a2610b22565b005b3480156102b057600080fd5b506102b9610c0a565b604051808260028111156102c957fe5b60ff16815260200191505060405180910390f35b3480156102e957600080fd5b506102f2610c21565b604051808273ffffffffffffffffffffffffffffffffffffffff1673ffffffffffffffffffffffffffffffffffffffff16815260200191505060405180910390f35b34801561034057600080fd5b506103836004803603602081101561035757600080fd5b81019080803573ffffffffffffffffffffffffffffffffffffffff169060200190929190505050610c4a565b6040518082815260200191505060405180910390f35b6103db600480360360208110156103af57600080fd5b81019080803573ffffffffffffffffffffffffffffffffffffffff169060200190929190505050610c93565b005b6000809054906101000a900473ffffffffffffffffffffffffffffffffffffffff1673ffffffffffffffffffffffffffffffffffffffff1661041d610d1d565b73ffffffffffffffffffffffffffffffffffffffff1614610489576040517f08c379a000000000000000000000000000000000000000000000000000000000815260040180806020018281038252602c815260200180611371602c913960400191505060405180910390fd5b600073ffffffffffffffffffffffffffffffffffffffff168173ffffffffffffffffffffffffffffffffffffffff16141561050f576040517f08c379a000000000000000000000000000000000000000000000000000000000815260040180806020018281038252602a815260200180611347602a913960400191505060405180910390fd5b806000806101000a81548173ffffffffffffffffffffffffffffffffffffffff021916908373ffffffffffffffffffffffffffffffffffffffff1602179055507f4101e71e974f68df5e9730cc223280b41654676bbb052cdcc735c3337e64d2d981604051808273ffffffffffffffffffffffffffffffffffffffff1673ffffffffffffffffffffffffffffffffffffffff16815260200191505060405180910390a150565b6000600260019054906101000a900473ffffffffffffffffffffffffffffffffffffffff16905090565b6000809054906101000a900473ffffffffffffffffffffffffffffffffffffffff1673ffffffffffffffffffffffffffffffffffffffff1661061f610d1d565b73ffffffffffffffffffffffffffffffffffffffff161461068b576040517f08c379a000000000000000000000000000000000000000000000000000000000815260040180806020018281038252602c815260200180611371602c913960400191505060405180910390fd5b6000600281111561069857fe5b600260009054906101000a900460ff1660028111156106b357fe5b14610709576040517f08c379a000000000000000000000000000000000000000000000000000000000815260040180806020018281038252602981526020018061131e6029913960400191505060405180910390fd5b60028060006101000a81548160ff0219169083600281111561072757fe5b02179055507f088672c3a6e342f7cd94a65ba63b79df24a8973927b4d05d803c44bbf787d12f60405160405180910390a1565b61076381610974565b6107b8576040517f08c379a00000000000000000000000000000000000000000000000000000000081526004018080602001828103825260338152602001806112eb6033913960400191505060405180910390fd5b6107c181610d25565b50565b6000809054906101000a900473ffffffffffffffffffffffffffffffffffffffff1673ffffffffffffffffffffffffffffffffffffffff16610804610d1d565b73ffffffffffffffffffffffffffffffffffffffff1614610870576040517f08c379a000000000000000000000000000000000000000000000000000000000815260040180806020018281038252602c815260200180611371602c913960400191505060405180910390fd5b6000600160008373ffffffffffffffffffffffffffffffffffffffff1673ffffffffffffffffffffffffffffffffffffffff1681526020019081526020016000205490506000600160008473ffffffffffffffffffffffffffffffffffffffff1673ffffffffffffffffffffffffffffffffffffffff16815260200190815260200160002081905550610922818373ffffffffffffffffffffffffffffffffffffffff16610ef390919063ffffffff16565b8173ffffffffffffffffffffffffffffffffffffffff167f7084f5476618d8e60b11ef0d7d3f06914655adb8793e28ff7f018d4c76d505d5826040518082815260200191505060405180910390a25050565b60006001600281111561098357fe5b600260009054906101000a900460ff16600281111561099e57fe5b149050919050565b6000809054906101000a900473ffffffffffffffffffffffffffffffffffffffff1673ffffffffffffffffffffffffffffffffffffffff166109e6610d1d565b73ffffffffffffffffffffffffffffffffffffffff1614610a52576040517f08c379a000000000000000000000000000000000000000000000000000000000815260040180806020018281038252602c815260200180611371602c913960400191505060405180910390fd5b60006002811115610a5f57fe5b600260009054906101000a900460ff166002811115610a7a57fe5b14610ad0576040517f08c379a000000000000000000000000000000000000000000000000000000000815260040180806020018281038252603281526020018061139d6032913960400191505060405180910390fd5b6001600260006101000a81548160ff02191690836002811115610aef57fe5b02179055507f599d8e5a83cffb867d051598c4d70e805d59802d8081c1c7d6dffc5b6aca2b8960405160405180910390a1565b600280811115610b2e57fe5b600260009054906101000a900460ff166002811115610b4957fe5b14610b9f576040517f08c379a000000000000000000000000000000000000000000000000000000000815260040180806020018281038252603881526020018061124e6038913960400191505060405180910390fd5b600260019054906101000a900473ffffffffffffffffffffffffffffffffffffffff1673ffffffffffffffffffffffffffffffffffffffff166108fc479081150290604051600060405180830381858888f19350505050158015610c07573d6000803e3d6000fd5b50565b6000600260009054906101000a900460ff16905090565b60008060009054906101000a900473ffffffffffffffffffffffffffffffffffffffff16905090565b6000600160008373ffffffffffffffffffffffffffffffffffffffff1673ffffffffffffffffffffffffffffffffffffffff168152602001908152602001600020549050919050565b60006002811115610ca057fe5b600260009054906101000a900460ff166002811115610cbb57fe5b14610d11576040517f08c379a000000000000000000000000000000000000000000000000000000000815260040180806020018281038252602b8152602001806112c0602b913960400191505060405180910390fd5b610d1a8161102d565b50565b600033905090565b6000809054906101000a900473ffffffffffffffffffffffffffffffffffffffff1673ffffffffffffffffffffffffffffffffffffffff16610d65610d1d565b73ffffffffffffffffffffffffffffffffffffffff1614610dd1576040517f08c379a000000000000000000000000000000000000000000000000000000000815260040180806020018281038252602c815260200180611371602c913960400191505060405180910390fd5b6000600160008373ffffffffffffffffffffffffffffffffffffffff1673ffffffffffffffffffffffffffffffffffffffff1681526020019081526020016000205490506000600160008473ffffffffffffffffffffffffffffffffffffffff1673ffffffffffffffffffffffffffffffffffffffff168152602001908152602001600020819055508173ffffffffffffffffffffffffffffffffffffffff166108fc829081150290604051600060405180830381858888f19350505050158015610ea0573d6000803e3d6000fd5b508173ffffffffffffffffffffffffffffffffffffffff167f7084f5476618d8e60b11ef0d7d3f06914655adb8793e28ff7f018d4c76d505d5826040518082815260200191505060405180910390a25050565b80471015610f69576040517f08c379a000000000000000000000000000000000000000000000000000000000815260040180806020018281038252601d8152602001807f416464726573733a20696e73756666696369656e742062616c616e636500000081525060200191505060405180910390fd5b60008273ffffffffffffffffffffffffffffffffffffffff168260405180600001905060006040518083038185875af1925050503d8060008114610fc9576040519150601f19603f3d011682016040523d82523d6000602084013e610fce565b606091505b5050905080611028576040517f08c379a000000000000000000000000000000000000000000000000000000000815260040180806020018281038252603a815260200180611286603a913960400191505060405180910390fd5b505050565b6000809054906101000a900473ffffffffffffffffffffffffffffffffffffffff1673ffffffffffffffffffffffffffffffffffffffff1661106d610d1d565b73ffffffffffffffffffffffffffffffffffffffff16146110d9576040517f08c379a000000000000000000000000000000000000000000000000000000000815260040180806020018281038252602c815260200180611371602c913960400191505060405180910390fd5b600034905061113081600160008573ffffffffffffffffffffffffffffffffffffffff1673ffffffffffffffffffffffffffffffffffffffff168152602001908152602001600020546111c590919063ffffffff16565b600160008473ffffffffffffffffffffffffffffffffffffffff1673ffffffffffffffffffffffffffffffffffffffff168152602001908152602001600020819055508173ffffffffffffffffffffffffffffffffffffffff167f2da466a7b24304f47e87fa2e1e5a81b9831ce54fec19055ce277ca2f39ba42c4826040518082815260200191505060405180910390a25050565b600080828401905083811015611243576040517f08c379a000000000000000000000000000000000000000000000000000000000815260040180806020018281038252601b8152602001807f536166654d6174683a206164646974696f6e206f766572666c6f77000000000081525060200191505060405180910390fd5b809150509291505056fe526566756e64457363726f773a2062656e65666963696172792063616e206f6e6c79207769746864726177207768696c6520636c6f736564416464726573733a20756e61626c6520746f2073656e642076616c75652c20726563697069656e74206d61792068617665207265766572746564526566756e64457363726f773a2063616e206f6e6c79206465706f736974207768696c6520616374697665436f6e646974696f6e616c457363726f773a207061796565206973206e6f7420616c6c6f77656420746f207769746864726177526566756e64457363726f773a2063616e206f6e6c7920636c6f7365207768696c65206163746976655365636f6e646172793a206e6577207072696d61727920697320746865207a65726f20616464726573735365636f6e646172793a2063616c6c6572206973206e6f7420746865207072696d617279206163636f756e74526566756e64457363726f773a2063616e206f6e6c7920656e61626c6520726566756e6473207768696c6520616374697665a265627a7a7231582093ae50b549243d1f3eacc19d08ab1f6db46e1aa021ecb9529dd07113c06b6a8364736f6c63430005100032526566756e64457363726f773a2062656e656669636961727920697320746865207a65726f2061646472657373608060405260006100146100bf60201b60201c565b9050806000806101000a81548173ffffffffffffffffffffffffffffffffffffffff021916908373ffffffffffffffffffffffffffffffffffffffff1602179055507f4101e71e974f68df5e9730cc223280b41654676bbb052cdcc735c3337e64d2d981604051808273ffffffffffffffffffffffffffffffffffffffff1673ffffffffffffffffffffffffffffffffffffffff16815260200191505060405180910390a1506100c7565b600033905090565b61054a806100d66000396000f3fe608060405234801561001057600080fd5b50600436106100415760003560e01c80632348238c14610046578063beabacc81461008a578063c6dbdf61146100f8575b600080fd5b6100886004803603602081101561005c57600080fd5b81019080803573ffffffffffffffffffffffffffffffffffffffff169060200190929190505050610142565b005b6100f6600480360360608110156100a057600080fd5b81019080803573ffffffffffffffffffffffffffffffffffffffff169060200190929190803573ffffffffffffffffffffffffffffffffffffffff1690602001909291908035906020019092919050505061031a565b005b61010061048e565b604051808273ffffffffffffffffffffffffffffffffffffffff1673ffffffffffffffffffffffffffffffffffffffff16815260200191505060405180910390f35b6000809054906101000a900473ffffffffffffffffffffffffffffffffffffffff1673ffffffffffffffffffffffffffffffffffffffff166101826104b7565b73ffffffffffffffffffffffffffffffffffffffff16146101ee576040517f08c379a000000000000000000000000000000000000000000000000000000000815260040180806020018281038252602c8152602001806104ea602c913960400191505060405180910390fd5b600073ffffffffffffffffffffffffffffffffffffffff168173ffffffffffffffffffffffffffffffffffffffff161415610274576040517f08c379a000000000000000000000000000000000000000000000000000000000815260040180806020018281038252602a8152602001806104c0602a913960400191505060405180910390fd5b806000806101000a81548173ffffffffffffffffffffffffffffffffffffffff021916908373ffffffffffffffffffffffffffffffffffffffff1602179055507f4101e71e974f68df5e9730cc223280b41654676bbb052cdcc735c3337e64d2d981604051808273ffffffffffffffffffffffffffffffffffffffff1673ffffffffffffffffffffffffffffffffffffffff16815260200191505060405180910390a150565b6000809054906101000a900473ffffffffffffffffffffffffffffffffffffffff1673ffffffffffffffffffffffffffffffffffffffff1661035a6104b7565b73ffffffffffffffffffffffffffffffffffffffff16146103c6576040517f08c379a000000000000000000000000000000000000000000000000000000000815260040180806020018281038252602c8152602001806104ea602c913960400191505060405180910390fd5b8273ffffffffffffffffffffffffffffffffffffffff1663a9059cbb83836040518363ffffffff1660e01b8152600401808373ffffffffffffffffffffffffffffffffffffffff1673ffffffffffffffffffffffffffffffffffffffff16815260200182815260200192505050602060405180830381600087803b15801561044d57600080fd5b505af1158015610461573d6000803e3d6000fd5b505050506040513d602081101561047757600080fd5b810190808051906020019092919050505050505050565b60008060009054906101000a900473ffffffffffffffffffffffffffffffffffffffff16905090565b60003390509056fe5365636f6e646172793a206e6577207072696d61727920697320746865207a65726f20616464726573735365636f6e646172793a2063616c6c6572206973206e6f7420746865207072696d617279206163636f756e74a265627a7a72315820b13e8cc4361fbb059591e16a2c2e8957d0aa372bffaafd1d1635c0e099e98a0f64736f6c6343000510003254696d656443726f776473616c653a206f70656e696e672074696d65206973206265666f72652063757272656e742074696d6554696d656443726f776473616c653a206f70656e696e672074696d65206973206e6f74206265666f726520636c6f73696e672074696d6543726f776473616c653a20746f6b656e20697320746865207a65726f2061646472657373526f6c65733a206163636f756e7420697320746865207a65726f206164647265737343726f776473616c653a2077616c6c657420697320746865207a65726f2061646472657373",
  "source": "pragma solidity ^0.5.0;\n\nimport \"./SLPRcoin.sol\";\nimport \"@openzeppelin/contracts/token/ERC20/ERC20.sol\";\nimport \"@openzeppelin/contracts/token/ERC20/IERC20.sol\";\nimport \"@openzeppelin/contracts/token/ERC20/ERC20Detailed.sol\";\nimport \"@openzeppelin/contracts/token/ERC20/ERC20Mintable.sol\";\nimport \"@openzeppelin/contracts/token/ERC20/ERC20Pausable.sol\";\nimport \"@openzeppelin/contracts/token/ERC20/TokenTimelock.sol\";\nimport \"@openzeppelin/contracts/crowdsale/Crowdsale.sol\";\nimport \"@openzeppelin/contracts/crowdsale/emission/MintedCrowdsale.sol\";\nimport \"@openzeppelin/contracts/crowdsale/validation/CappedCrowdsale.sol\";\nimport \"@openzeppelin/contracts/crowdsale/validation/TimedCrowdsale.sol\";\nimport \"@openzeppelin/contracts/crowdsale/validation/WhitelistCrowdsale.sol\";\nimport \"@openzeppelin/contracts/crowdsale/distribution/RefundablePostDeliveryCrowdsale.sol\";\n\n/** The SLPRcoinCrowdSale contract inherits standards and properties from the following Crowdsale contracts:\n * \n * CROWDSALE: Base architecture for crowdsales. Sets up a wallet to collect funds. Framework to send Ether to the Smart Contract &\n * compute the amount of Tokens disbursed based on the rate.\n * \n * MINTEDCROWDSALE: The contract will mint Tokens anytime they are purchased, instead of having a preset total supply.\n * The total amount of tokens in distribution is determined by how many are actually sold.\n * \n * TIMEDCROWDSALE: Sets parameters to start (openingTime) and end (closingTime) the Crowdsale.\n * \n * CAPPEDCROWDSALE: Sets the max amount of runds it can raise in the Crowdsale.\n * \n * WHITELISTCROWDSALE: Sets parameters to fullfill KYC requirements. Match contributions in the Crowdsale to real people. Investors \n * must be WhiteListed before they can purchase Tokens.\n * \n * STAGED CROWDSALE: Creates 2 stages (pre-sale and public sale) to set rates where investors can receive more Tokens in the pre-sale\n * vs the public sale. In pre-sale, funds go to the wallet, not to the refund escrow vault.\n * \n * REFUNDABLECROWDSALE: Sets a minimum goal of funds to raise in the Crowdsale. If goal isn't reached, it will refund investors.\n * \n * DISTRIBUTION & VESTING: Set amount of Tokens to distribute to Founders, Company, and Public.\n */\n\ncontract SLPRcoinCrowdSale is Crowdsale, MintedCrowdsale, CappedCrowdsale, TimedCrowdsale, WhitelistCrowdsale, RefundablePostDeliveryCrowdsale {\n    //address token_sale_address;\n    //address owner = msg.sender;\n    //address token_sale_address;\n\n    // Track investor contributions. Set Minimum and Maximum contributions.\n    uint256 public investorMinCap = 2000000000000000; // 0.002 ether\n    uint256 public investorHardCap = 50000000000000000000; // 50 ether\n    // Create a mapping to hold record of investor contributions.\n    mapping(address => uint256) public contributions;\n    \n\n    // Set Crowdsale Stages to manage presale and public token rates\n    enum CrowdsaleStage { PreICO, ICO }\n    // Set default stage to presale stage\n    CrowdsaleStage public stage = CrowdsaleStage.PreICO;\n\n    // Set token Distribution percentages for public sale and Token Resereves \n    // (Public: 70%, Founders, Foundation, Partners: 10% each)\n    uint256 public tokenSalePercentage   = 70;\n    uint256 public foundersPercentage    = 10;\n    uint256 public foundationPercentage  = 10;\n    uint256 public partnersPercentage    = 10;\n    uint256 private _weiRaised = 0;\n    \n    // Create addresses for  Token Reserve funds\n    address public foundersFund;\n    address public foundationFund;\n    address public partnersFund;\n    \n    // Create token Time Lock addreses to set token holding time frame\n    uint256 public releaseTime;\n    address public foundersTimelock;\n    address public foundationTimelock;\n    address public partnersTimelock;\n    \n    // Create the contract's constructor to pass parameters from inherited contracts \n    // Crowdsale(rate, wallet, token), CappedCrowdsale(cap), TimedCrowdsale(openingTime, closingTime), RefundableCrowdsale(goal)\n    // Include addresses for investors' token reserve funds and for releaseTime\n    constructor(\n        uint256         rate,\n        address payable wallet,\n        SLPRcoin        token,\n        uint256         cap,\n        uint256         openingTime,\n        uint256         closingTime,\n        uint256         goal,\n        address         _foundersFund,\n        address         _foundationFund,\n        address         _partnersFund,\n        uint256         _releaseTime\n        )\n        \n        Crowdsale(rate, wallet, token)\n        CappedCrowdsale(cap)\n        TimedCrowdsale(openingTime, closingTime)\n        RefundableCrowdsale(goal)\n        public\n        {\n            require(goal <= cap);\n            foundersFund    =   _foundersFund;\n            foundationFund  =   _foundationFund;\n            partnersFund    =   _partnersFund;\n            releaseTime     =   _releaseTime;\n        }\n    \n    /**\n    * Create public function to view current investor contriutions by address \n    * @dev Returns the amount contributed so far by a specific user.\n    * @param _beneficiary Address of contributor\n    * @return User contribution so far\n    */\n    function getUserContribution(address payable _beneficiary)\n    public view returns (uint256)\n    {\n        return contributions[_beneficiary];\n        \n    }\n    \n\n    /**\n     *@dev Allows admin to update the crowdsale stage\n     * @param _stage Crowdsale stage\n     */\n    function setCrowdsaleStage(uint _stage) public {\n        //require(msg.sender == owner, \"You are not the owner\");\n        \n        if(uint(CrowdsaleStage.PreICO) == _stage) {\n            stage = CrowdsaleStage.PreICO;\n        } else if (uint(CrowdsaleStage.ICO) == _stage) {\n            stage = CrowdsaleStage.ICO;\n        }\n         if(stage == CrowdsaleStage.PreICO) {\n             uint256 rate = 500;\n         } else if (stage == CrowdsaleStage.ICO) {\n             uint256 rate = 250;\n         }\n    }\n    \n    /**\n     * @dev forwards funds to the wallet during the PreICO stage, then the refund vault during ICO stage\n     */\n    function _forwardFunds(address payable wallet) internal {\n         if(stage == CrowdsaleStage.PreICO) {\n             wallet.transfer(msg.value);\n         } else if (stage == CrowdsaleStage.ICO) {\n             super._forwardFunds();\n         }\n    }\n    \n    \n    /**\n    * @dev Extend parent behavior requiring purchase to respect investor min/max funding cap.\n    * @param _beneficiary Token purchaser\n    * @param _weiAmount Amount of wei contributed\n    */\n    function _preValidatePurchase(\n        address payable _beneficiary, \n        uint256 _weiAmount\n        ) \n        internal \n        {\n        super._preValidatePurchase(_beneficiary, _weiAmount);\n        uint256 _existingContribution = contributions[_beneficiary];\n        uint256 _newContribution = _existingContribution.add(_weiAmount);\n        require(_newContribution >= investorMinCap && _newContribution <= investorHardCap);\n        contributions[_beneficiary] = _newContribution;\n        \n    }\n    \n    /**\n     * @return the amount of wei raised.\n     */\n    function fundsRaised() public view returns (uint256) {\n        return _weiRaised;\n    }\n    \n    function _buyTokens(address beneficiary, uint256 amount) public nonReentrant payable {\n        // super.buyTokens(beneficiary);\n        uint256 weiAmount = amount;\n        _preValidatePurchase(beneficiary, weiAmount);\n    \n        // calculate token amount to be created\n        uint256 tokens = _getTokenAmount(weiAmount);\n\n        // update state\n        _weiRaised = _weiRaised.add(weiAmount);\n\n        _processPurchase(beneficiary, tokens);\n        emit TokensPurchased(_msgSender(), beneficiary, weiAmount, tokens);\n\n        _updatePurchasingState(beneficiary, weiAmount);\n\n        _forwardFunds();\n        _postValidatePurchase(beneficiary, weiAmount);\n    }\n    \n    \n    /**\n    *@dev enables token transfers, called when owner calls finalize()\n    */\n    function finalization(  ) internal {\n        /**Future enhancements below will enable token transfers when goal is reached and Distribution to preset funds once \n         * releaseTime expires\n         */\n        \n        //if(goalReached()) {\n            //ERC20Mintable _mintableToken = ERC20Mintable(token);\n            //uint256 _alreadyMinted = _mintableToken.totalSupply();\n            \n            //uint256 _finalTotalSupply = _alreadyMinted.div(tokenSalePercentage).mul(100);\n            \n            //foundersTimelock    = new TokenTimelock(token, foundersFund, releaseTime);\n            //foundationTimelock  = new TokenTimelock(token, foundationFund, releaseTime);\n            //partnersTimelock    = new TokenTimelock(token, partnersFund, releaseTime);\n            \n            //_mintableToken.mint(address(foundersTimelock),      _finalTotalSupply.mul(foundersPercentage).div(100));\n            //_mintableToken.mint(address(foundationTimelock),    _finalTotalSupply.mul(foundationPercentage).div(100));\n            //_mintableToken.mint(address(partnersTimelock),      _finalTotalSupply.mul(partnersPercentage).div(100));\n            \n            //_mintableToken.mint(foundersTimelock,      _finalTotalSupply.div(foundersPercentage));\n            //_mintableToken.mint(foundationTimelock,    _finalTotalSupply.div(foundationPercentage));\n            //_mintableToken.mint(partnersTimelock,      _finalTotalSupply.div(partnersPercentage));\n            \n            //_mintableToken.mint();\n            \n            //ERC20Pausable _pausableToken = ERC20Pausable(token);\n            //_pausableToken.unpause();\n            //_pausableToken.transferOwnership(wallet);\n            \n            //_mintableToken.transferOwnership(wallet);\n        //}    \n            \n        super._finalization();    \n    }\n    \n    /**\n     * @dev fallback function\n     */\n    function () external payable {\n    }\n        \n    \n}\n\ncontract SLPRcoinCrowdSaleDeployer {\n\n    address public token_sale_address;\n    address public token_address;\n    \n    uint fakenow = now;\n\n    constructor(\n        // @TODO: Fill in the constructor parameters!\n        string memory   name,\n        string memory   symbol,\n        uint256         rate,\n        address payable wallet,\n        //SLPRcoin        token,\n        uint256         cap,\n        //uint256         openingTime,\n        //uint256         closingTime,\n        uint256         goal,\n        address         _foundersFund,\n        address         _foundationFund,\n        address         _partnersFund\n        //uint256         _releaseTime\n        \n        // block_timestamp \"now\" will be passed as opening_time directly in the function call instead of creating a variable\n        //closing time is also passed via now + the duration. in this case we made the duration 1 hour for testing purposes\n        \n    )\n        public\n    {\n        // @TODO: create the SLPRcoin and keep its address handy\n            // Create the SLPRcoin by defining a variable like `SLPRcoin token` and setting it to equal new SLPRcoin(). \n            // Inside of the parameters of new SLPRcoin, pass in the name and symbol variables. \n            // For the initial_supply variable that SLPRcoin expects, pass in 0\n\n        SLPRcoin token = new SLPRcoin(name, symbol, 0);\n\n            // Then, store the address of the token by using token_address = address(token). \n            // This will allow us to easily fetch the token's address for later from the deploying contract.\n        \n        token_address = address(token);\n        \n        // @TODO: create the SLPRcoinCrowdSale and tell it about the token, \n        // set the goal, and set the open and close times to now and now + 24 weeks.\n\n        SLPRcoinCrowdSale slpr_sale = new SLPRcoinCrowdSale(rate, wallet, token, cap, fakenow, fakenow + 1 days, goal, _foundersFund, _foundationFund, _partnersFund, fakenow + 104 weeks);\n        token_sale_address = address(slpr_sale);\n        \n        // make the SLPRcoinCrowdSale contract a minter, then have the SLPRcoinCrowdSaleDeployer renounce its minter role\n        token.addMinter(token_sale_address);\n        token.addMinter(wallet);\n        token.renounceMinter();\n        \n        // make the SLPRcoinCrowdSale contract the Whitelist Admin, then have the SLPRcoinCrowdSaleDeployer renounce its \n        // Whitelist Admin role.\n        slpr_sale.addWhitelistAdmin(token_sale_address);\n        slpr_sale.addWhitelistAdmin(wallet);\n        slpr_sale.renounceWhitelistAdmin();\n        \n        // Give owner rights to the SLPRcoinCrowdSale contract\n        //SLPRcoinCrowdSaleDeployer.transferOwnership(wallet);\n    }\n}\n",
  "sourcePath": "/Users/luisaguilar/Fintech_Bootcamp/SLPR_Coin_dApp/contracts/SLPRcoinCrowdSale.sol",
  "compiler": {
    "name": "solc",
    "version": "0.5.16+commit.9c3226ce.Emscripten.clang"
  },
  "schemaVersion": "3.3.3",
  "updatedAt": "2021-01-25T01:24:01.455Z",
  "networkType": "ethereum",
  "devdoc": {
    "methods": {}
  },
  "userdoc": {
    "methods": {}
  }
}